:020000040800F2
:1000000038050020490100082F280008572600085D
:100010002D280008B90900081D2C00080000000068
:100020000000000000000000000000003928000867
:10003000F309000800000000352800083B280008EC
:100040006301000863010008630100086301000800
:1000500063010008372800086301000863010008F5
:10006000630100086301000863010008BD0900087E
:1000700063010008630100086301000863010008D0
:1000800063010008630100086908000863010008B3
:1000900063010008630100086301000863010008B0
:1000A00063010008630100086301000863010008A0
:1000B00063010008BD28000863010008630100080F
:1000C0006301000863010008630100086301000880
:1000D00063010008112C0008630100086301000897
:1000E0006301000863010008630100086301000860
:1000F0006301000863010008630100086301000850
:10010000630100086301000863010008630100083F
:10011000630100086301000863010008630100082F
:10012000630100086301000863010008630100081F
:10013000DFF810D000F086FB0048004725350008A6
:10014000AFF3008038050020064880470648004786
:10015000FEE7FEE7FEE7FEE7FEE7FEE7FEE7FEE777
:10016000FEE7FEE7BB28000831010008202A04DB77
:10017000203A21FA02F00021704721FA02F3D04020
:10018000C2F120029140084319467047D2B201E003
:1001900000F8012B491EFBD270470022F6E710B58C
:1001A00013460A4604461946FFF7F0FF204610BDE5
:1001B00080EA010210B502F00043400022D04A005C
:1001C0001FD0010E01EB1261C0F35600C2F35602BC
:1001D00040F4000042F40002A0FB022000047F393A
:1001E000140400D0401C50EA124001D44000491EC3
:1001F000C2B20C0604EBD010401C4008802A02D08A
:1002000003E0002010BD20F00100002900DA0020EA
:10021000184310BD420005D0C0F3C752524291426C
:1002200001DC0020704700EBC15070472DE9FE4F04
:10023000804681EA0300C00F0C46009021F0004187
:1002400023F00045B8EB0200A94105D24046214603
:1002500090461C460B46024623F00040104347D010
:10026000270DC7F30A00C3F30A510290401A019008
:1002700040286BDAC3F3130040F4801B00989246C9
:1002800020B10023D2EB030A63EB0B0B0198594614
:10029000C0F14002504600F0F0F906460D465046C7
:1002A0005946019A00F0F8F910EB0800614100246A
:1002B00087EA115284EAE7731A4340D0009A62B386
:1002C000019A012A4FEA075215DC001B61EB02017B
:1002D0004FF0004202EA0752CDE90042001C41F50E
:1002E000801132462B4600F02FFA03B0BDE8F08FA4
:1002F00040462146F9E7001B61EB0201001C41F575
:10030000801300185B412018A2F5001747EB03018A
:1003100040EAD570B6196D4111E06D084FEA360616
:1003200045EAC0754FEA0752001B61EB0201001C51
:1003300041F5801149084FEA300000195141324619
:100340002B4603B0BDE8F04F00F0EFB90098012252
:1003500040000023D0EB020263EBE07300982146DB
:100360004FEAE074B8EB000061EB0401E9E783F0C9
:1003700000435BE781F0004158E72DE9FE4F81EA39
:10038000030404F0004421F0004100944FF0000BFE
:1003900023F0004350EA01045ED052EA03045BD02C
:1003A000C3F30A54C1F30A552C44A4F2F334019464
:1003B000A0FB0254C1F3130141F48011C3F31303F2
:1003C00043F4801301FB024400FB034E840A970AA6
:1003D00044EA815447EA8357A4FB076802958D0AD3
:1003E00005FB07854FEA932C04FB0C542705029D5F
:1003F0004FEA065847EA1637B5EB08056EEB070CCF
:10040000870E920E47EA811742EA8312A7FB020188
:10041000B6EB0B0164EB00042B0D43EA0C335E18C2
:1004200044EB1C50DA465146E7FB0201C5F31304C6
:100430004FEA0B3343EA14534FEA0432019C43EA78
:100440000603A4F10C040294009CCDE900B400F072
:100450007BF903B0BDE8F08F00200146F9E72DE9F4
:10046000F04D81EA030404F0004B21F000451446EE
:100470004FF0000A23F0004150EA050220D054EA70
:1004800001021DD0C5F30A570246C5F31303C1F399
:100490001300C1F30A5640F4801543F48013A7EB10
:1004A0000608101BD64608F2FD3873EB050002D390
:1004B00008F1010801E092185B41B8F1000F03DA7E
:1004C00000200146BDE8F08D00204FF48011064663
:1004D00084460EE0171B73EB050705D3121B63EB75
:1004E000050306434CEA010C49084FEA3000921814
:1004F0005B4150EA0107EDD152EA030012D082EAD3
:10050000040083EA0501084305D0101BAB4106D265
:100510000122002306E000224FF0004302E06FF0CA
:10052000010253101AEB06004CEB085110EB0A00C5
:1005300041EB0B01BDE8F04D00F0F7B870B521F0CC
:10054000004303430CD0C1F30A550024D5EB040546
:1005500064EB0403D617AD1AB34102DB0020014659
:1005600070BD201841EB025170BD96230022114648
:1005700000F0ADB80EB540F2334102910021CDE953
:1005800000110A460B4600F0DFF803B000BD00F092
:10059000004230F000400AD0C10D01F56071C0F397
:1005A000160042EA0151C20840071143704700207B
:1005B0000146704701F0004330B421F0004150EA99
:1005C000010206D00A0DA2F56072C1F31301002AE0
:1005D00002DC30BC00207047440F44EAC104C10073
:1005E000E01830BC00EBC25000F068B830B50B46E4
:1005F000014600202022012409E021FA02F59D4253
:1006000005D303FA02F5491B04FA02F52844151E26
:10061000A2F10102F1DC30BD2DE9F05F05460020BA
:1006200092469B4688460646814640241BE0284663
:10063000414647462246FFF799FD53465A46C01A9F
:10064000914110D311461846224600F016F82D1A93
:1006500067EB01084F4622460120002100F00DF80B
:1006600017EB00094E41201EA4F10104DFDC4846CF
:1006700031462A464346BDE8F09F202A04DB203A53
:1006800000FA02F1002070479140C2F1200320FAE5
:1006900003F3194390407047202A06DBCB17203A1A
:1006A00041FA02F043EAE07306E041FA02F3D04077
:1006B000C2F1200291400843194670470029A8BFA3
:1006C0007047401C490008BF20F00100704710B47B
:1006D000B0FA80FC00FA0CF050EA010404BF10BC30
:1006E000704749B1CCF1200421FA04F411FA0CF15D
:1006F00018BF012121430843A3EB0C01CB1D4FEA96
:1007000000614FEA102042BF002010BC704700EB90
:10071000C35010440029A4BF10BC7047401C4900BE
:1007200008BF20F0010010BC704710B5141E73F113
:10073000000408DA401C41F1000192185B411A43A1
:1007400001D120F0010010BD2DE9F04D92469B46ED
:1007500011B1B1FA81F202E0B0FA80F22032904693
:10076000FFF78BFF04460F4640EA0A0041EA0B01FF
:1007700053465A46084313D0114653EA010019D094
:10078000C8F140025046FFF7F1FC05460E465046C0
:1007900059464246FFF771FF084305D0012004E0A7
:1007A00020463946BDE8F08D0020054346EAE07654
:1007B0002C4337430A986305E40AA0EB08000022A3
:1007C000FD0A44EA47540A3002D500200146E9E711
:1007D000010510196941DDE9084500196941BDE8C5
:1007E000F04DA2E7C1F30A52C1F3130140F2FF3307
:1007F00041F480119A4202DA00200146704740F22B
:1008000033439A42A2F2334202DC5242FFF7AEBCBB
:10081000FFF733BF30B5041E71F1000404DB4FF065
:100820000044404264EB0101141E73F1000405DB37
:100830001C464FF00043524263EB0403994208BF49
:10084000904230BD064C074D06E0E06840F00103E1
:1008500094E8070098471034AC42F6D3FFF76CFCDD
:100860002037000840370008014800F0B4B9000004
:100870003000002070B5044600688168C943C9078C
:1008800017D1816821F00101816000F0EDFE05467D
:100890000AE000BF00F0E8FE401B022804D92068EF
:1008A0008068C043C00706D020688068C043C00786
:1008B000F0D0002070BDA06A40F01000A062E06A95
:1008C00040F00100E062012070BD10B50146406AB1
:1008D000826A12F0500F05D0006A026BBDE810402A
:1008E00008461047816A41F4007181620168896895
:1008F000C1F3424107290CD1017B51B9816A21F42E
:1009000080718162816AC90403D4816A41F0010166
:10091000816200F05DF910BD10B5406A816A41F056
:1009200040018162C16A41F00401C16200F052F9E4
:1009300010BD10B5406A00F04CF910BDF8B50026A6
:100940000446009600688168C943C9072DD08168B4
:1009500041F001018160164816490068B0FBF1F0D2
:1009600000E0401E00900028FBD100F07DFE05460F
:1009700016E000BF00F078FE401B022810D9206866
:100980008068C043C0070BD0A06A40F01000A0628E
:10099000E06A40F00100E06284F824600120F8BDC4
:1009A00020688068C043C007E4D10020F8BD000083
:1009B0001400002040420F00FEE70000014800F054
:1009C0009DBB00006000002030B590F8405001242D
:1009D000AC40C56B6C60046863604368102B0368AF
:1009E00003D099600068C26030BD9A600068C16041
:1009F00030BD704772B6FEE7F8B500250446009595
:100A000090F8240001280BD0012084F8240020460F
:100A1000FFF730FF2046FFF791FF060002D050E0BD
:100A20000220F8BDA06A20F4885040F00200A062C5
:100A3000022000F0BFFE25490968B1FBF0F040003C
:100A400000E0401E00900028FBD12068816841F042
:100A50000801816000F008FE074608E000F004FE8F
:100A6000C01B0A2803D920688068000715D42068B5
:100A700080680007F2D42068816841F00401816039
:100A800000F0F2FD074612E000F0EEFDC01B0A2860
:100A90000DD920688068400709D5A06A20F00200BF
:100AA00040F01000A06284F824500120F8BD2068B6
:100AB00080684007E8D4A06A20F0020040F00100FE
:100AC000A06284F824503046F8BD000014000020D5
:100AD00070470000F8B50024009490F824202546C3
:100AE000012A12D0012280F824204A681F23072AF5
:100AF0000DD20668776B521E02EB820293409F4331
:100B00000B6893401F43776319E00220F8BD066825
:100B10000D2A0AD2376BD21F02EB820293409F4309
:100B20000B6893401F43376309E0F76A0D3A02EB05
:100B3000820293409F430B6893401F43F7620A6809
:100B4000072306680A2A0AD3F7680A3A02EB420228
:100B500093409F438B6893401F43F76008E03769D9
:100B600002EB420293409F438B6893401F433761DF
:100B70000A68102A01D0112A20D1124B02689A4229
:100B800017D193681B0219D4936843F40003936050
:100B90000968102912D10C490C4A0968B1FBF2F11D
:100BA00001EB8101490000E0491E00910029FBD1C1
:100BB00004E0816A41F020018162012480F8245020
:100BC0002046F8BD002401401400002040420F00E0
:100BD00070477047704770B50446006806684568FE
:100BE000A90625D5B10723D5A16AC90603D4A16AF0
:100BF00041F40071A1628168C1F34241072910D11B
:100C0000217B71B9416821F020014160A06A20F484
:100C10008070A062A06AC00403D4A06A40F0010002
:100C2000A0622046FFF7D4FF21686FF01200086031
:100C300028062ED570072CD5A06AC00603D4A06A5A
:100C400040F40050A06220688168C1F30231072996
:100C500009D04168490515D48168C1F3424107298B
:100C600010D1217B71B9416821F080014160A06AF7
:100C700020F48050A062A06AC00503D4A06A40F0AE
:100C80000100A0622046FFF723FF21686FF00C00EF
:100C9000086068060CD5F0070AD0A06A40F48030DE
:100CA000A062204600F096F821686FF0010008600D
:100CB00070BD00002DE9F04104004FF000057FD029
:100CC000A06A002628B9E66284F82460204600F075
:100CD00083F82046FFF7CEFDA16AC90600D420B1F3
:100CE000A06A40F01000A0626AE0A16A21F4885175
:100CF00041F00201A162334923688B42E16904D1CA
:100D0000B1F5402F01D14FF40021277B4FF4807CB7
:100D100041EA470261680A43A168614508D0012998
:100D200006D0002194F814E0BEF1010F02D00AE0D1
:100D30006146F7E7C7B1A76A47F02007A762E76AED
:100D400047F00107E7625F6827F469470F435F6078
:100D5000236899681C4F394011439960A168614527
:100D60000BD0012909D00CE0DFF860E0A7690EEB99
:100D700047370F4347F40061E5E7218A0D05A5F5E4
:100D800080152168CB6A23F470032B43CB62216862
:100D900089680F4B1940914208D1E662A16A21F09F
:100DA000020141F00101A162BDE8F081A06A20F0DA
:100DB000020040F01000A062E06A40F00100E06232
:100DC0000120F1E7003C0140FDF7E1FF00E0FFFFFB
:100DD000FE0E1FFF7047000070B586B00025064666
:100DE000009501950295039500681E49884236D109
:100DF0001D49886940F400708861886900F40070BA
:100E00000490886940F0040088618869694600F0B0
:100E1000040004903220009003200190134800F059
:100E200019FB144C1248C4E900058020C4E90250A3
:100E300040002061800060612020C4E90605204652
:100E400000F080FA08B1FFF7D5FD346200220321DB
:100E50001220666200F07CFC122000F06BFC06B0F1
:100E600070BD000000240140001002400008014055
:100E700008000240600000202DE9F0478946044642
:100E80003B4900683B4F0E1D9046884201D0B84256
:100E900007D1306810F4702F03D001252846BDE833
:100EA000F08794F8240001280CD0012084F8240055
:100EB0002046FFF743FD05004FF0000004D084F802
:100EC0002400EBE70220EAE7A16A40F601629143C1
:100ED00041F48071A1622168B94218D1326812F4DC
:100EE000702F14D0A16A41F48011A16231684905C4
:100EF00005D5A16A21F4005141F48051A162A16A93
:100F0000C9040AD5E16A21F00601E16206E0A26A9D
:100F100022F48012A2624968E9E7E06284F82400C2
:100F2000216A15488862216A1448C862216A1448F7
:100F3000086321686FF0020008602068816841F44E
:100F400080718160216843464A464C31206A00F036
:100F500037FA20688168C1F342410729816803D0CC
:100F600041F48011816099E741F4A001FAE70000A3
:100F70000024014000280140CB0800083309000884
:100F80001909000810B590F821100022022905D097
:100F90000421816380F82020012010BD01680B68C6
:100FA00023F00E030B6001680B6823F001030B6054
:100FB00090F84030C46B012101FA03F3636080F8BC
:100FC000211080F82020104610BD00002DE9F05FB0
:100FD00090F821100024022903D004218163012408
:100FE00085E001680A6822F00E020A6001680A685A
:100FF00022F001020A603F4E3E4FB215DFF8F4C006
:10100000DFF8F090DFF8ECA0DFF8E8B0DFF8E4E01C
:101010000168783F13011502ACF1640CA9F1500985
:10102000AAF13C0AABF1280BAEF1140E4FF4801874
:10103000B14227D9B9420ED0614512D049451DD0E1
:10104000514518D0594518D0714501D1424615E097
:10105000294EB14201D1012210E0274E1436B1428F
:1010600001D110220AE0244E2836B14206D0224A8D
:101070003C32914201D11A4600E02A461E49091F1E
:101080000A602BE0B94213D0614517D0494522D000
:1010900051451DD059451DD0714501D142461AE038
:1010A000B14202D14FF0807215E0134EB14201D12E
:1010B000012210E0104E1436B14201D110220AE094
:1010C0000D4E2836B14206D00B4A3C32914201D136
:1010D0001A4600E02A46074980394A60012180F813
:1010E0002110002180F82010416B01B18847204673
:1010F000BDE8F09F80000240080402402DE9F05F47
:10110000C16B0A6801680B68046C4FF0040808FAA8
:1011100004F8844D844E854FDFF814C2DFF8149232
:10112000DFF814A2DFF814B2DFF814E218EA020FB5
:1011300065D05FEA437862D50A68920603D40A68EC
:1011400022F004020A60DFF8F0814FF48062016847
:1011500008F1140813011402414524D9A9420DD005
:10116000B1420FD0B9421AD0614515D0494515D0CA
:10117000514501D1120312E0594501D104220EE07C
:10118000714501D140220AE06D4D1435A94206D0C7
:101190006B4A2832914201D11A4600E02246674943
:1011A000091F0A6029E0A94213D0B14215D0B94203
:1011B00020D061451BD049451BD0514502D14FF489
:1011C000800217E0414502D14FF0806212E059459C
:1011D00001D104220EE0714501D140220AE0584DB0
:1011E0001435A94206D0564A2832914201D11A46F6
:1011F00000E022464B4908394A60C16A71E04FF06D
:10120000020808FA04F818EA020F70D05FEA83783F
:101210006DD50A68920606D40A6822F00A020A60AE
:10122000012180F82110DFF810814FF4007201686D
:1012300008F1140813011402414524D9A9420DD024
:10124000B1420FD0B9421AD0614515D0494515D0E9
:10125000514501D1120312E0594501D102220EE09D
:10126000714501D120220AE0354D1435A94206D03E
:10127000334A2832914201D11A4600E022462F49D2
:10128000091F0A6029E0A94213D0B14215D0B94222
:1012900020D061451BD049451BD0514502D14FF4A8
:1012A000001217E0414502D14FF0007212E059459B
:1012B00001D102220EE0714501D120220AE0204D29
:1012C0001435A94206D01E4A2832914201D11A464D
:1012D00000E02246134908394A60002180F82010B6
:1012E000816A00291CD0BDE8F05F0847FFE70825A8
:1012F000A540154214D01A0712D50A6822F00E0232
:101300000A6090F84020C36B012101FA02F25A6092
:10131000816380F82110002180F82010016BE0E744
:10132000BDE8F09F080002401C000240300002406F
:1013300044000240580002406C0002400804024091
:101340001C04024030B560B11A4B026814219A4265
:1013500009D2194B1344B3FBF1F189000164174919
:101360000AE0012030BD134B5B421344B3FBF1F1A3
:10137000890001640F490839C163022180F82110F6
:10138000136843F6F0718B43F0E901142143D0E96F
:1013900002452C4321430469214344692143846964
:1013A00021431943116000214163012242770177F3
:1013B000084630BD08040240F8FFFDBF00000240AF
:1013C00070B5044690F82000002501280CD00120BB
:1013D00084F8200094F821600020012E06D084F8C3
:1013E00020000225284670BD022070BD022684F828
:1013F0002160A0632068066826F00106066020468A
:10140000FFF7E2FAE06A00282068016802D041F0A4
:101410000E0106E021F0040101602068016841F03E
:101420000A0101602068016841F001010160D9E70B
:1014300070B5044600F018F90546601C02D0044857
:101440000078044400F010F9401BA042FAD370BDAC
:10145000080000202DE9F84FDFF8C8910024A9F119
:10146000040B23460F2709F1040AABF1040ED1E067
:101470000125A54006EA0502AA4276D1DFF8A8C1F7
:101480004E68A6EB0C0866452BD00DDC032E34D03D
:1014900005DC36B3012E19D0022E2FD11BE0112E00
:1014A00016D0122E2AD119E0B8F5881F19D006DC03
:1014B000B8F5803F15D0B8F5801F1FD111E0B8F501
:1014C000001F0ED0B8F5041F18D10AE0CB6815E054
:1014D000CB681B1D12E0CB6808330FE0CB680C33E0
:1014E0000CE08B682BB1012B4FF0080303D0456152
:1014F00004E0042302E0056100E00023FF2A01D894
:10150000064601E000F104064FEA840501D9A5F181
:101510002005D6F8008007FA05FC28EA0C0803FA33
:1015200005F548EA0508C6F800804D68ED0070D55D
:101530003E4DAE6946F00106AE61AD6924F003068A
:1015400005F0010500953A4D06EB050CDCF8085056
:10155000A607360F07FA06F825EA0805DFF8D48053
:10156000404503D14FF0000825E052E0DFF8C88085
:10157000404502D14FF001081DE0DFF8C080404532
:1015800002D14FF0020816E0DFF8B480404502D1E6
:101590004FF003080FE0DFF8AC80404502D14FF078
:1015A000040808E0DFF8A080404502D14FF00508AC
:1015B00001E04FF0060808FA06F848EA0508CCF8FA
:1015C00008804D68D9F80060ED024D4601D51643FC
:1015D00000E096432E604D68DAF80060AD02554693
:1015E00001D5164300E096432E604D68DBF800609D
:1015F000AD035D4601D5164300E096432E604D686D
:10160000DEF80060ED03754601D5164300E0964311
:101610002E60641C0A681646E2407FF429AFBDE8DC
:10162000F88F000008040140000011100010024073
:101630000000014000080140000C01400010014082
:101640000014014000180140001C0140C26821EA5A
:1016500002030A4043EA0241016170470AB1016195
:1016600070470904FBE700000148806870470000EC
:1016700008000020024881680278114481607047A8
:1016800008000020074810B5016841F01001016012
:10169000032000F07DF8012000F006F800F024F8A7
:1016A000002010BD0020024070B50D4D04464FF4DF
:1016B0007A712878B1FBF0F00A490968B1FBF0F0C3
:1016C00000F0CAFB48B9102C07D200222146501E58
:1016D00000F03EF800206C6070BD012070BD00007D
:1016E0000800002014000020104808B5816941F06E
:1016F00001018161816901F001010091C16941F03D
:101700008051C161C069002200F0805000901146F4
:10171000052000F01DF8052000F00CF80448416891
:1017200021F0E06141F08061416008BD001002409D
:1017300000000140002809DB00F01F020121914058
:101740004009800000F1E020C0F80011704700005F
:10175000F0B40E4B1B680C46C3F30223C3F107051C
:10176000042D00D90425191D072901D2002300E00A
:10177000DB1E012606FA05F1491E214099409E40D4
:10178000761E16403143F0BC01F05ABA0CED00E071
:10179000064900F0070208684FF6FF03184040EAC8
:1017A0000220034A10430860704700000CED00E07F
:1017B0000000FA0510B501460020284C04292FD05E
:1017C0000BDC012930D0022929D100F073F96168BE
:1017D000C1F38131491C49001FE0082920D010299C
:1017E0001DD161682268D20119D51D48C1F3834219
:1017F000C903805C0AD56168194AC1F34041921E51
:10180000515C184AB2FBF1F1484301E016494843E4
:101810006168490203D440000321B0FBF1F010BD20
:10182000BDE8104000F056B9226AC2F30121012937
:1018300003D1920701D5C80310BD022905D1626A00
:10184000920702D549F6404010BD0329FCD121681A
:101850008903F9D54FF2244010BD0000001002406A
:10186000F836000800127A0000093D002DE9F8431F
:1018700005460078354CC00754D0E0690026C0000A
:1018800008D4E06940F08050E061E069012600F092
:10189000805000902E480168C90512D40168804626
:1018A00041F480710160FFF7DFFE074605E000BFED
:1018B000FFF7DAFEC01B642823D8D8F80000C00563
:1018C000F6D5206A10F4407021D0A98801F4407147
:1018D00081421CD0206A1F49012220F440700A6016
:1018E00000220A602062C00711D0FFF7BDFE074644
:1018F00041F2883808E000BFFFF7B6FEC11B414542
:1019000002D90320BDE8F883206A8007F4D5206A55
:10191000696820F44070084320621EB1E06920F03D
:101920008050E0612878800705D56068A96820F4B8
:101930004040084360602878C00605D56068696942
:1019400020F48000084360600020DBE700100240C4
:101950000070004040044242704700002DE9F0470B
:101960000F46050061D0434E306800F00700B842D2
:1019700009D2306820F0070038433060306800F04A
:101980000700B84251D128683B4C810712D5400767
:1019900003D5606840F4E06060602878000703D5F4
:1019A000606840F4605060606068A96820F0F000F2
:1019B000084360602878C00728D06868012810D0E4
:1019C0002168022810D0890700292EDA616821F0E9
:1019D000030101436160FFF747FE804641F2883909
:1019E0000DE021688903EFE78901EDE7FFF73CFE91
:1019F000A0EB0801494502D90320BDE8F0876068E3
:101A0000696800F00C00B0EB810FEFD1306800F096
:101A10000700B8420BD9306820F007003843306027
:101A2000306800F00700B84201D00120E5E72878CF
:101A3000400705D56068E96820F4E060084360600D
:101A40002878000706D56068296920F4605040EACC
:101A5000C100606000F03EF86168084AC1F30311FC
:101A6000515CC8400649086006480068FFF71CFE44
:101A70000020C2E7002002400010024008370008A2
:101A8000140000200C00002001490120C8647047A8
:101A9000000042420448054900684968044AC1F30D
:101AA0000221515CC8407047140000200010024021
:101AB000183700080448054900684968044AC1F31A
:101AC000C221515CC8407047140000200010024041
:101AD000183700080E4A51680E4801F00C03042B19
:101AE00011D0082B0FD10C48C1F38343C903C05C4C
:101AF0000AD55168084AC1F34041921E515C054A1B
:101B00005043B0FBF1F07047044948437047000070
:101B10000010024000127A00E636000800093D007D
:101B200010B5044CA068000603D5FFF715FF802010
:101B3000A07210BD001002402DE9F84F040070D0D3
:101B40002078C04DC00749D06868C0F381000128E3
:101B500007D06868C0F38100022809D16868C00313
:101B600006D52868800339D560680028E7D035E0BD
:101B70006068B0F5803F0BD010B1B0F5A02F11D048
:101B8000286820F480302860286820F4802002E053
:101B9000286840F480302860606890B1FFF764FDE9
:101BA00006460AE0286840F480202860F0E700BF7D
:101BB000FFF75AFD801B642873D828688003F7D587
:101BC0000CE0FFF751FD064605E000BFFFF74CFDB6
:101BD000801B6428F0D828688003F7D420789A4EB8
:101BE00080074FF001094FF0000839D5686810F000
:101BF0000C0F07D06868C0F38100022809D168681B
:101C0000C00306D42868800714D52069012808D1AC
:101C100010E02069B0B1C6F80090FFF725FD074637
:101C200005E00AE1FFF720FDC01B0228C4D82868A0
:101C30008007F7D52868616920F0F80040EAC10004
:101C400028600DE0C6F80080FFF70EFD074604E0AF
:101C5000FFF70AFDC01B022823D828688007F7D4A5
:101C6000207800072CD57948A169D9B1C0F8009037
:101C7000FFF7FAFC074604E0FFF7F6FCC01B02285A
:101C80000FD8686A8007F7D571484FF4FA51006899
:101C9000B0FBF1F0009000BF0098411E0091FAD215
:101CA0000EE080E0C0F80080FFF7DEFC074604E0AD
:101CB000FFF7DAFCC01B022875D8686A8007F7D4E2
:101CC0002078400760D5E8690027C00008D4E8699B
:101CD00040F08050E861E869012700F080500090F2
:101CE0005C480168C90513D40168834641F48071DA
:101CF0000160FFF7B9FC824606E000BFFFF7B4FCC5
:101D0000A0EB0A0064284ED8DBF80000C005F5D52A
:101D1000E06801280AD008B1052813D0286A20F00D
:101D200001002862286A20F0040002E0286A40F0DE
:101D300001002862E06841F2883B98B1FFF794FC0B
:101D400082460BE0286A40F004002862EEE700BFFC
:101D5000FFF78AFCA0EB0A0159455AD8286A800788
:101D6000F6D50CE0FFF780FC824605E0FFF77CFC2F
:101D7000A0EB0A0159454CD8286A8007F6D41FB158
:101D8000E86920F08050E861E06988B36968C1F3D0
:101D90008101022944D00228C6F8608004D0FFF7F0
:101DA00063FC044638E034E0FFF75EFC074604E0DD
:101DB000FFF75AFCC01B02282BD828688001F7D4F3
:101DC000206AB0F5803F05D16868A16820F4003032
:101DD00008436860D4E908010843696821F4741174
:101DE00008436860C6F86090FFF73EFC044606E0D2
:101DF00025E000BFFFF738FC001B022809D828683F
:101E00008001F7D51BE000BFFFF72EFC001B022866
:101E100002D90320BDE8F88F28688001F4D40EE0D1
:101E20000128F7D06868226A00F48031914204D119
:101E3000616A00F47010884201D00120EAE70020B6
:101E4000E8E70000001002400000424280044242E5
:101E5000140000200070004010B5401EB0F1807FDB
:101E600001D3012010BD4FF0E02460610F21601705
:101E700000F0E6FE0020A06107202061002010BDD8
:101E80007047704770B590F83C20012A2CD001248F
:101E900080F83C40022280F83D2003685A689D6823
:101EA00022F070060A6832435A60104B02689A4268
:101EB0000ED00F4B9A420BD0B2F1804F08D00D4B91
:101EC0009A4205D00C4B9A4202D00C4B9A4204D154
:101ED000496825F080031943916080F83D40002156
:101EE00080F83C10084670BD022070BD002C0140F7
:101EF000003401400004004000080040000C004095
:101F000010B5040003D094F83D0010B107E00120A3
:101F100010BD002084F83C00204600F01FF802208D
:101F200084F83D00211D206800F0CEFC012084F8DB
:101F3000460084F83E0084F83F0084F8400084F8AE
:101F4000410084F8420084F8430084F8440084F897
:101F5000450084F83D00002010BD000008B5006871
:101F60000B49884212D10B48C16941F00201C1619D
:101F7000C069002200F00200009011461D20FFF70A
:101F8000E7FBBDE808401D20FFF7D4BB08BD0000FB
:101F9000000400400010024090F83D10012901D0DB
:101FA00001207047022180F83D100168CA6842F0A4
:101FB0000102CA6000680E4988420ED00D4988426D
:101FC0000BD0B0F1804F08D00B49884205D00B49A7
:101FD000884202D00A49884204D1816801F0070191
:101FE000062903D0016841F001010160002070471B
:101FF000002C014000340140000400400008004073
:10200000000C004070B5044690F83C000025012803
:1020100017D0012684F83C60022084F83D00206837
:10202000826822F0770222F47F428260086850289A
:1020300038D00DDC20284FD005DC90B3102811D10A
:102040004AE0022070BD302846D040280AD13BE04B
:1020500060282FD070280DD0B0F5805F03D0B0F588
:10206000005F12D0012584F83D60002084F83C0018
:10207000284670BDCB68D1E90121206800F06AFCD8
:102080002068816841F0770109E0CB68D1E901213E
:10209000206800F05FFC2068816841F48041816025
:1020A000E1E719E0CA684968206800F065FC502142
:1020B000206806E0CA684968206800F06EFC60216C
:1020C000206800F051FCCEE7CA684968206800F03B
:1020D00053FC40212068F4E7226801461046F0E7EF
:1020E000704770B50446006801694FF00005C943A8
:1020F000890715D4C168C943890711D4E91E016154
:1021000001202077206880698007204602D0FFF7F1
:10211000E7FF04E000F098F8204600F096F82577F5
:1021200020680169C943490717D4C168C9434907F1
:1021300013D46FF0040101610220207720688069C8
:1021400010F4407F204602D0FFF7CAFF04E000F001
:102150007BF8204600F079F8257720680169C943AB
:10216000090716D4C168C943090712D46FF00801E2
:102170000161042020772068C0698007204602D0D2
:10218000FFF7AEFF04E000F05FF8204600F05DF8D6
:10219000257720680169C943C90617D4C168C943B6
:1021A000C90613D46FF01001016108202077206860
:1021B000C06910F4407F204602D0FFF791FF04E091
:1021C00000F042F8204600F040F8257720680169C9
:1021D000C943C90708D1C168C943C90704D1891EC9
:1021E0000161204600F032F820680169C943090600
:1021F00009D4C168C943090605D46FF080010161A3
:102200002046FFF73DFE20680169C943490609D40D
:10221000C168C943490605D46FF0400101612046F9
:1022200000F01EF820680169C94389060BD4C16813
:10223000C943890607D46FF0200101612046BDE83B
:102240007040FFF71EBE70BD7047704705220249FF
:102250000248FEF711BE00001C00002030000020E4
:102260007047704770470000F8B501680446086879
:10227000CA684B6910F00F0F4FF0000559D003F0FA
:10228000010602F49077374365D0C10705D0D10528
:1022900003D5616C41F001016164410705D5D9079F
:1022A00003D0616C41F002016164810705D5D90753
:1022B00003D0616C41F004016164010707D502F0AD
:1022C0002001314303D0616C41F008016164616C0D
:1022D00000293AD0800604D5900602D5204600F0A9
:1022E0009DFB20684069616CC0F38010090700D431
:1022F00060B3204600F06BFB20684069400621D5A2
:102300002068143050E8001F21F0400140E800121E
:10231000002AF5D1E06BA8B16D494163E06BFEF78F
:1023200055FE002811D0E06B416B01B0BDE8F040D4
:10233000084783060FD593060DD52046BDE8F84023
:1023400000F06CBB2046FFF78DFFF8BD2046FFF77D
:1023500089FF6564F8BD266B2023012E7CD1C6065B
:102360007AD5D60678D508684868009048694FF055
:102370000206400640D5E16B086840680004000C86
:10238000E8D0A28D8242E5D9E085886920282DD049
:1023900020680C3050E8001F21F4807140E80012E2
:1023A000002AF5D12068143050E8001F21F0010107
:1023B00040E80012002AF5D12068143050E8001FD0
:1023C00021F0400140E80012002AF5D184F84230A3
:1023D000256320680C3050E8001F21F0100140E810
:1023E0000012002AF5D1E06BFEF7CCFD6663A08DEC
:1023F000E18D401A81B22AE0A08DE18D401A81B2B0
:10240000E08D0028A6D00029A4D022680C3252E822
:10241000000F20F4907042E80007002FF5D12068EB
:10242000143050E8002F22F0010240E80027002F6E
:10243000F5D184F84230256320680C3050E8002F35
:1024400022F0100240E80023002BF5D166632046FD
:10245000FFF707FFF8BDFFE705062BD5150629D5C1
:1024600094F841002128F5D1A068B0F5805F01D132
:102470002069B0B1206A411C21622168007848605F
:10248000E08C401E0004000CE084E3D12068C168A9
:1024900021F08001C1602068C16841F04001C16045
:1024A000D8E7206A0088C0F308004860206A801CD2
:1024B0002062E5E74006CDD55006CBD5CA68204658
:1024C00022F04002CA6084F8413000F0C3F8C1E74E
:1024D000BF29000870B5040004D094F8410000251D
:1024E00010B106E0012070BD84F84050204600F095
:1024F00023F8242084F841002068C16821F40051A9
:10250000C160204600F0ECFA2068016921F4904196
:1025100001612068416921F02A0141612068C16898
:1025200041F40051C1606564202084F8410084F8C2
:1025300042006563002070BD30B585B00024009472
:102540000194029403940068184988422CD11848D9
:10255000816941F480418161816901F48041049184
:10256000816941F0040181618069124D00F004002D
:1025700004904FF40070009002200190032003901B
:1025800069462846FEF766FF2815CDE9000469462E
:1025900028460294FEF75EFF002204212520FFF763
:1025A000D7F82520FFF7C6F805B030BD0038014048
:1025B000001002400008014070472DE9F84304462E
:1025C00090F841001F4616460D46202802D00220F2
:1025D000BDE8F8837DB176B100206064212084F8E5
:1025E0004100FFF741F8A6848046E684A068B0F574
:1025F000805F02D003E00120EAE7206910B12E4697
:1026000000250EE000260CE08021204600F0C4FAF0
:10261000A0B9AEB116F8010B21684860E08C401EED
:10262000E084E08C43464FF0000200970028EBD195
:102630004FF04001204600F0AFFA30B10320C7E769
:1026400035F8020BC0F30800E6E7202084F84100CB
:102650000020BDE77047FEE7FEB50026264800963D
:102660000196244902960160891581600673012450
:10267000047505254660C9020561C0E90641FEF7FB
:1026800019FB08B1FEF7B6F90094CDE90146694699
:102690001948FEF71FFA08B1FEF7ACF9042402202E
:1026A000CDE9004069461448FEF714FA08B1FEF778
:1026B000A1F90320CDE9005069460F48FEF70AFA58
:1026C00008B1FEF797F91020CDE9000469460A48E1
:1026D000FEF700FA08B1FEF78DF91120CDE90005EB
:1026E00069460548FEF7F6F9002801D0FEF782F9A1
:1026F000FEBD00000024014030000020094808B55C
:10270000416941F0010141614069002200F001008E
:10271000009011460B20FFF71BF8BDE808400B2086
:10272000FFF708B80010024030B585B00024144807
:102730000094019402940394816941F00401816141
:10274000816901F004010491816941F0080181610E
:1027500080690C4D00F008000490002220212846DA
:10276000FEF77CFF202000900120CDE9010403202A
:10277000039069462846FEF76DFE05B030BD0000A7
:1027800000100240000C014010B586B0002418482B
:1027900000940194029403940494144905940160F4
:1027A00041F61F41C0E9011442F20F71C0E9031460
:1027B00080218161FFF7A4FB08B1FEF71BF94FF4FC
:1027C0008050009069460A48FFF71CFC08B1FEF7EC
:1027D00011F92020CDE9040404A90548FFF752FBB4
:1027E000002801D0FEF706F906B010BD0004004035
:1027F000A40000200C4810B50A4901604FF4E131F3
:102800004160002181600C22C160C0E90412816135
:10281000C161FFF75FFE002803D0BDE81040FEF75E
:10282000E9B810BD00380140EC000020FEE7FFF7DA
:1028300077F9FEE7704770477047FEF71BBF30B56A
:1028400095B028216846FDF7A8FC14210AA8FDF7D9
:10285000A4FC18210FA8FDF7A0FC01210804CDE974
:1028600000100025029502240491CDE907404FF4A1
:10287000E01009906846FFF75FF908B172B6FEE70D
:102880000AA90F2081E831004FF48060CDE90D05E1
:1028900002210AA8FFF762F808B172B6FEE74FF40A
:1028A000004011900F940FA8FEF7E0FF08B172B638
:1028B000FEE7FFF7E9F815B030BD70470148FFF7B4
:1028C00010BC0000A4000020F0B502681C4B1D4D98
:1028D0001D4E1E4F1E4C4FF0804C984209D0A04216
:1028E00007D0604505D0A84203D0B04201D0B8421D
:1028F00004D122F0700E4A6842EA0E02984209D0D2
:10290000A04207D0604505D0A84203D0B04201D014
:10291000B84203D122F44075CA682A434D6922F0B7
:1029200080022A4302608A68C2620A688262984210
:1029300001D0A04201D10969016301214161F0BDCB
:10294000002C01400004004000080040000C004042
:102950000034014010B5846842EA032224F47F4425
:102960000A432243826010BD826822F070020A434B
:1029700042F007018160704710B5036A046A24F0D1
:1029800001040462846924F0F00444EA021423F090
:102990000A020A438461026210BD10B5036A046A28
:1029A00024F010040462846923F0A00324F470442A
:1029B00044EA023243EA01118261016210BD10B59E
:1029C000406A0021C185C184FFF74CFC10BD01683D
:1029D0000C3151E8002F22F4907241E80023002BC3
:1029E000F5D10168143151E8002F22F0010241E8CD
:1029F0000023002BF5D1016B012909D101680C31AD
:102A000051E8002F22F0100241E80023002BF5D1FD
:102A1000202180F8421000210163704708B590F82A
:102A20004210222901D0022008BD82684FF4805351
:102A30009A4201D1016921B1816A9A421BD04AB1FF
:102A40000AE00268816A5268C2F308020A80816A59
:102A5000891C08E0026972B10268526802F07F02C4
:102A60000A70816A491C8162C18D491E0904090CE2
:102A7000C18503D01BE002685268F1E70168CA68AB
:102A800022F02002CA600168CA6822F48072CA601B
:102A900001684A6922F001024A61202180F842104F
:102AA00000214163026B012A03D0FFF785FD00205E
:102AB00008BD016301680C3151E8002F22F01002BB
:102AC00041E80023002BF5D101680A68D20602D53F
:102AD0000A6849680091818DFFF7C3FBE7E70000B2
:102AE00070B5044600680169E26821F44051114361
:102AF00001612169A0680843616908432168CA68C7
:102B000041F20C639A430243CA6020684169A2699A
:102B100021F44071114341611E492068884202D16D
:102B2000FEF7C8FF01E0FEF7B5FF00EBC00101EBC7
:102B30000012606864218000B2FBF0F3B3FBF1F394
:102B40006FF018067343B2FBF0F5B2FBF0F605EB3D
:102B50008305322303EB0515B5FBF1F5B6FBF1F662
:102B600005F0F00505EB0615B2FBF0F6B2FBF0F050
:102B7000B0FBF1F06FF01802504306EB800003EB5E
:102B80000010B0FBF1F0216800F00F0028448860CD
:102B900070BD0000003801402DE9F041984617460D
:102BA0000E460446069D27E0681C25D02DB1FEF791
:102BB0005BFDA0EB0800A8421ED920680C3050E84D
:102BC000001F21F4D07140E80012002AF5D12068DE
:102BD000143050E8001F21F0010140E80012002AE3
:102BE000F5D1202084F8410084F84200002084F8C8
:102BF00040000320BDE8F0812068006836EA00004C
:102C000004D00020B842CFD00020F3E70120F9E73C
:102C10000148FFF729BB0000EC000020FEE70000A0
:102C20000FB4054B10B503A9044A029800F0EAF866
:102C300010BC5DF814FB00000D35000818000020E2
:102C40000907090E002804DB00F1E02080F80014D9
:102C5000704700F00F0000F1E02080F8141D70476D
:102C600002E008C8121F08C1002AFAD17047704755
:102C7000002001E001C1121F002AFBD170470000B3
:102C80002DE9FF5F82B00021DDE90430020DDDF89F
:102C900040B0034318D044F61050A2F2FF32424332
:102CA0001514119801281FD0A5EB0B00401C5FEAFA
:102CB000000A4FF000064E4FDFF83891B0465046FC
:102CC00015D5CAF1000413E0119801244AA3012884
:102CD00001D16FEA0B010298119AC0E90031C0E9F5
:102CE000024206B0BDE8F09FCBF10000DFE70446EA
:102CF0000021404A491842EB0450CDE9001012E08F
:102D0000E00707D032463B4640464946FDF735FBD3
:102D10008046894632463B4610461946FDF72DFB54
:102D200006460F466410002CEAD1DDE90401DDE916
:102D30000023BAF1000F06DAFDF71FFB42464B46AF
:102D4000FDF71BFB05E0FDF78AFB42464B46FDF70E
:102D500086FB04460E460022284BFDF75BFD03D898
:102D60004FF0FF30014607E00022254B2046314658
:102D7000FDF75CFAFDF736FD102409E0002C0ADBB4
:102D80000A220023FDF748FC039B30321A55641ECB
:102D900050EA0102F2D1641C039AC4F111031444F5
:102DA000119A012A03D0012208430DD10AE00843F9
:102DB00004D000204FF0110B119072E7A3EB0B052C
:102DC0006D1E0DE05B4504DD4FF0000205F10105CD
:102DD00004E003DA4FF00002A5F10105002AECD06F
:102DE00002981199C0E90231C0E9004579E7000075
:102DF000000014400000F03F300000000000F043ED
:102E00000000E03F2DE9FF4F95B09A468846064600
:102E10000025EEE1252877D100242746F94A012133
:102E2000039400E0044316F8013F203B01FA03F04D
:102E30001042F7D130782A2811D06FF02F03307864
:102E4000A0F13002092A16D8039A44F0020402EBDA
:102E5000820203EB42021044761C0390EFE758F81D
:102E6000042B0392002A03DA504244F400540390E6
:102E700044F00204761C30782E2816D116F8010F83
:102E800044F004042A280DD06FF02F023078A0F10E
:102E90003003092B09D807EB870302EB4303C7185C
:102EA000761CF3E758F8047B761C30786C280FD03A
:102EB00006DC4C2817D068280DD06A2814D104E00D
:102EC000742810D07A280FD10DE044F400140AE0E1
:102ED00044F4801401E044F440147278824202D138
:102EE00004F58014761C761C307866280BD013DC31
:102EF000582877D009DC002875D04528F6D0462818
:102F0000F4D047281AD193E118E0632835D064281B
:102F100079D0652812D18BE1702873D008DC67283E
:102F2000F1D069286FD06E280DD06F2806D1ACE0A3
:102F300073282CD0752874D0782853D0524617990E
:102F400090476D1C54E1C4F30250022809D00328B5
:102F50000DD0D8F8001004280DD00D6008F1040839
:102F600046E1D8F80010EA17C1E90052F6E7D8F8B0
:102F700000100D80F2E70D70F0E718F8041B8DF8D3
:102F8000001000208DF80100EB46012003E058F806
:102F900004BB4FF0FF3061074FF0000102D40DE099
:102FA00009F101018946B9420FDA8145F8DB1BF8C6
:102FB00009100029F4D108E009F101018946814294
:102FC000FADB1BF809100029F6D103985346A0EB51
:102FD000090721463846179A00F080FA284400EB8A
:102FE000090507E044E008E10DE01BF8010B52463B
:102FF00017999047B9F10109F7D25346214638464F
:10300000179AF2E039E00A21C4F302524FF0000BA4
:103010000091022A06D058F8040BC117032A09D0E0
:103020000AE023E008F1070020F00702F2E80201BD
:10303000904605E000B2C117042A01D140B2C11781
:10304000002906DA0A460021404261EB02012D22E6
:1030500002E0220504D52B228DF80420012203E092
:10306000E20701D02022F7E7914657E00A2100E06D
:1030700010214FF0000B00910BE010214FF0000BDE
:1030800044F004040827009103E008204FF0000BEF
:103090000090C4F30252022A05D058F8040B002114
:1030A000032A08D008E008F1070020F00702F2E840
:1030B0000201904603E080B2042A00D1C0B24FF072
:1030C000000922072AD53278702A07D0DDF800C01F
:1030D0008CF0100C5CEA0B0C05D00EE040228DF851
:1030E0000420012208E050EA010306D030238DF8C5
:1030F00004308DF8052002229146009B83F00803DE
:1031000053EA0B030AD150EA010201D1620705D547
:1031100030228DF804204FF001097F1E3278582AA2
:1031200004D039A20C920CAA02920BE03BA2F9E760
:103130005B46009AFDF770FA0C9B9B5C029A521E4C
:103140000292137050EA0102F2D1029804A9081AFF
:1031500000F1200B600702D524F4803400E0012741
:103160005F4502DDA7EB0B0000E0002000EB0B0148
:10317000009003984944401A0390E00306D4534654
:103180002146179A039800F0A9F90544002706E0A4
:1031900001A85246C05D179990476D1C7F1C4F4592
:1031A000F6DBE0030CD553462146179A039800F04E
:1031B00095F9054404E030205246179990476D1C5C
:1031C0000099481E00900029F5DC08E00298029959
:1031D00052460078491C0291179990476D1CBBF12B
:1031E0000001ABF1010BF1DC5BE100F065F9054496
:1031F000761C307800287FF40DAE19B02846BDE863
:10320000F08F000009280100303132333435363771
:103210003839616263646566000000003031323322
:1032200034353637383941424344454600000000C2
:10323000600700D4062708F1070020F00700F0E837
:103240000223804603F0004C5FEA0C0001D097A0F7
:1032500009E0200501D596A005E0E00701D095A082
:1032600001E0AFF24C001390307823F00043652862
:103270000CD006DC452809D046281DD047287FD130
:103280003BE0662818D067287AD136E00021112F5C
:1032900001DB112000E0781CCDE9000104A90CA895
:1032A000FFF7EEFCDDE90D010C9A4FF0000B07F182
:1032B0000109109200914EE04FF000400097CDE9D7
:1032C000011004A90CA8FFF7DBFCDDE90D020C9B43
:1032D0000F994FF0000B91461093009211B9791C91
:1032E00000EB0109B7EB090003D4C0F1FF3B07F184
:1032F0000109A9EB0700019042E0012F00DA012744
:103300000021112F01DD112000E03846CDE9000138
:1033100004A90CA8FFF7B4FCDDE90D010C9A00919B
:103320004FF0000BB946109221070FD4009A4A457E
:1033300003DA914601E0A9F10109B9F1010F05DDB8
:10334000109AA9F10101515C3029F4D0B84202DA97
:1033500010F1040F03DA0121CDE9011010E000287B
:1033600003DC8344A9EB000102E0411C494500DD78
:103370008946A0EB0B00401C01904FF000400290EA
:10338000200705D40198484502DB4FF0FF3001903B
:1033900000208DF84B0002980DF14B07B0F1004F63
:1033A00025D002200C902B200D90029800280CDADA
:1033B000404202902D200D9007E00A210298FDF76F
:1033C00015F93031029007F8011D0C99481E0C9038
:1033D0000029F2DC02980028EFD1791E0D980870C0
:1033E000307800F0200040F0450007F8020D11A8E9
:1033F000C01BC01D02901398007800B1012000EBA3
:103400000901019801EBE071029801440398401A08
:10341000401E0390E00306D453462146179A0398B2
:1034200000F05CF805441398007818B152461799DB
:1034300090476D1CE00323D553462146179A039805
:1034400000F04CF805441BE0BBF1000F07DB0098CF
:10345000584504DD1098179910F80B0001E01799F2
:1034600030205246904701980BF1010B401E05F1A8
:103470000105019004D12E205246179990476D1CEA
:10348000B9F10001A9F10109DEDC05E017F8010B33
:103490005246179990476D1C0299481E02900029C8
:1034A000F4DC53462146179A03989EE62D0000004F
:1034B0002B000000200000002DE9F041044600250B
:1034C0001E461746880404D405E039462020B0473C
:1034D0006D1C641EF9D52846BDE8F0812DE9F04148
:1034E000044600251E469046C80301D5302700E05B
:1034F0002027880404D505E041463846B0476D1CB6
:10350000641EF9D52846BDE8F081000013B54FF0E0
:10351000FF33012269460248FFF74FF800981CBDAF
:10352000EC000020FEF7AEF8FFF789F9FFF7FCF892
:10353000FFF7E4F8FFF790F8FFF75CF9FFF724F9DD
:1035400036A0FFF76DFB3748FDF756FA3648FEF711
:1035500023FD052235493348FDF78EFC334CDFF857
:10356000D080344DDFF8D090DFF8D0A0DFF8D0B0B5
:103570006FF00B064FF06637E068FCF7FBFF324652
:10358000FCF7DCFF3A464346FCF7F7FEFDF712F87E
:1035900028602069FCF7E9FF4946FCF709FE31463F
:1035A000FCF738FEFCF7F3FF52465B46FCF7E2FE01
:1035B000244A254BFCF753FF0022244BFCF736FE30
:1035C000FCF7F8FF686022A02168FFF729FB27A01D
:1035D0006168FFF725FB2CA0A168FFF721FB286895
:1035E000FCF7D5FF02460B462EA0FFF719FB6868D3
:1035F000FCF7CDFF02460B4632A0FFF711FB1AA0E5
:10360000FFF70EFB18A0FFF70BFB20213448FEF755
:103610001DF84FF47A70FDF70BFFADE753544D0DD5
:103620000A00000030000020A40000201C00002040
:1036300066660A400000002033335340E17A14AE3E
:1036400047E1F63F22FDF675E09C713F00003940EE
:103650004144432050413120726561642076616CA1
:103660007565203A202564200D0A0000414443205E
:1036700050413420726561642076616C7565203A32
:10368000202564200D0A000041444320504135208C
:10369000726561642076616C7565203A202564202E
:1036A0000D0A00006368616E676520766F6C746157
:1036B00067652076616C7565203A20252E3266207C
:1036C0000D0A00006368616E67652054656D7020A7
:1036D00076616C7565203A20252E3466200D0A002F
:1036E000000C0140010202030405060708090A0B49
:1036F0000C0D0E0F10100102020304050607080945
:103700000A0B0C0D0E0F101000000000000000004E
:103710000102030406070809000000000102030477
:1037200040370008000000201C000000602C00084A
:103730005C3700081C0000201C050000702C0008ED
:103740000000000000000000010000001000000068
:0C375000000000000024F4000000000055
:0400000508000131BD
:00000001FF
