:020000040800F2
:1000000018070020CD0100080F180008EF1600089F
:100010000D180008D30200082D1C00080000000085
:10002000000000000000000000000000131800089D
:10003000D50200080000000011180008151800087B
:10004000E7010008E7010008E7010008E7010008F0
:10005000E7010008E7010008E7010008E7010008E0
:10006000E7010008E7010008E7010008E7010008D0
:10007000E7010008E7010008E7010008E7010008C0
:10008000E7010008E7010008E7010008E7010008B0
:10009000E7010008E7010008E7010008E7010008A0
:1000A000E7010008E7010008E701000879180008E7
:1000B000E7010008E7010008E7010008E701000880
:1000C000E7010008E7010008E7010008E701000870
:1000D000E7010008211C0008E7010008E70100080B
:1000E000E7010008E7010008E7010008E701000850
:1000F000E7010008E7010008E7010008E701000840
:10010000E7010008E7010008E7010008E70100082F
:10011000E7010008E7010008E7010008E70100081F
:10012000E7010008E7010008E7010008E70100080F
:1001300000F002F800F03AF80AA090E8000C8244BF
:100140008344AAF10107DA4501D100F02FF8AFF29C
:10015000090EBAE80F0013F0010F18BFFB1A43F0A5
:1001600001031847BC1B0000DC1B0000103A24BF31
:1001700078C878C1FAD8520724BF30C830C144BF0C
:1001800004680C607047000000230024002500264E
:10019000103A28BF78C1FBD8520728BF30C148BFEA
:1001A0000B6070471FB51FBD10B510BD00F058F8AB
:1001B0001146FFF7F7FF01F04BFD00F076F803B4AE
:1001C000FFF7F2FF03BC00F07DF80000094880470C
:1001D00009480047FEE7FEE7FEE7FEE7FEE7FEE729
:1001E000FEE7FEE7FEE7FEE704480549054A064B41
:1001F000704700007718000831010008180100203E
:100200001807002018030020180300204FF00002F8
:1002100000B5134694469646203922BFA0E80C50FC
:10022000A0E80C50B1F12001BFF4F7AF090728BFD7
:10023000A0E80C5048BF0CC05DF804EB890028BF53
:1002400040F8042B08BF704748BF20F8022B11F07C
:10025000804F18BF00F8012B7047704770477047F8
:10026000754600F02BF8AE4605006946534620F06F
:100270000700854618B020B5FFF7B6FFBDE820405F
:100280004FF000064FF000074FF000084FF0000B52
:1002900021F00701AC46ACE8C009ACE8C009ACE805
:1002A000C009ACE8C0098D46704710B50446AFF3ED
:1002B00000802046BDE81040FFF781BF004870472E
:1002C000B400002001491820ABBEFEE72600020062
:1002D0007047FEE7704772B6FEE710B590F8211040
:1002E0000022022905D00421816380F8202001200A
:1002F00010BD01680B6823F00E030B6001680B68EA
:1003000023F001030B6090F84030C46B012101FA27
:1003100003F3636080F8211080F82020104610BDA0
:100320002DE9F05F90F821100024022903D0042168
:100330008163012485E001680A6822F00E020A60E8
:1003400001680A6822F001020A603F4E3E4FB21572
:10035000DFF8F4C0DFF8F090DFF8ECA0DFF8E8B0E9
:10036000DFF8E4E00168783F13011502ACF1640C9A
:10037000A9F15009AAF13C0AABF1280BAEF1140E19
:100380004FF48018B14227D9B9420ED0614512D03E
:1003900049451DD0514518D0594518D0714501D156
:1003A000424615E0294EB14201D1012210E0274E0C
:1003B0001436B14201D110220AE0244E2836B1424F
:1003C00006D0224A3C32914201D11A4600E02A4628
:1003D0001E49091F0A602BE0B94213D0614517D0AE
:1003E000494522D051451DD059451DD0714501D1F7
:1003F00042461AE0B14202D14FF0807215E0134E2E
:10040000B14201D1012210E0104E1436B14201D1A7
:1004100010220AE00D4E2836B14206D00B4A3C327B
:10042000914201D11A4600E02A46074980394A60C4
:10043000012180F82110002180F82010416B01B1CA
:1004400088472046BDE8F09F800002400804024033
:1004500070B5044600F018F90546601C02D0044847
:100460000078044400F010F9401BA042FAD370BD9C
:10047000080000202DE9F84FDFF8C8910024A9F109
:10048000040B23460F2709F1040AABF1040ED1E057
:100490000125A54006EA0502AA4276D1DFF8A8C1E7
:1004A0004E68A6EB0C0866452BD00DDC032E34D02D
:1004B00005DC36B3012E19D0022E2FD11BE0112EF0
:1004C00016D0122E2AD119E0B8F5881F19D006DCF3
:1004D000B8F5803F15D0B8F5801F1FD111E0B8F5F1
:1004E000001F0ED0B8F5041F18D10AE0CB6815E044
:1004F000CB681B1D12E0CB6808330FE0CB680C33D0
:100500000CE08B682BB1012B4FF0080303D0456141
:1005100004E0042302E0056100E00023FF2A01D883
:10052000064601E000F104064FEA840501D9A5F171
:100530002005D6F8008007FA05FC28EA0C0803FA23
:1005400005F548EA0508C6F800804D68ED0070D54D
:100550003E4DAE6946F00106AE61AD6924F003067A
:1005600005F0010500953A4D06EB050CDCF8085046
:10057000A607360F07FA06F825EA0805DFF8D48043
:10058000404503D14FF0000825E052E0DFF8C88075
:10059000404502D14FF001081DE0DFF8C080404522
:1005A00002D14FF0020816E0DFF8B480404502D1D6
:1005B0004FF003080FE0DFF8AC80404502D14FF068
:1005C000040808E0DFF8A080404502D14FF005089C
:1005D00001E04FF0060808FA06F848EA0508CCF8EA
:1005E00008804D68D9F80060ED024D4601D51643EC
:1005F00000E096432E604D68DAF80060AD02554683
:1006000001D5164300E096432E604D68DBF800608C
:10061000AD035D4601D5164300E096432E604D685C
:10062000DEF80060ED03754601D5164300E0964301
:100630002E60641C0A681646E2407FF429AFBDE8CC
:10064000F88F000008040140000011100010024063
:100650000000014000080140000C01400010014072
:100660000014014000180140001C0140C26821EA4A
:1006700002030A4043EA0241016170470AB1016185
:1006800070470904FBE700000148806870470000DC
:100690000800002002488168027811448160704798
:1006A00008000020074810B5016841F01001016002
:1006B000032000F075F80F2000F006F800F024F891
:1006C000002010BD0020024070B50D4D04464FF4CF
:1006D0007A712878B1FBF0F00A490968B1FBF0F0B3
:1006E00000F0DCFA48B9102C07D200222146501E37
:1006F00000F036F800206C6070BD012070BD000075
:1007000008000020140000200C4808B5816941F061
:1007100001018161816901F001010091C16941F02C
:100720008051C161C06900F0805000900448416868
:1007300021F0E06141F08061416008BD001002409D
:1007400000000140002809DB00F01F020121914058
:100750004009800000F1E020C0F80011704700005F
:10076000F0B40E4B1B680C46C3F30223C3F107051C
:10077000042D00D90425191D072901D2002300E00A
:10078000DB1E012606FA05F1491E214099409E40D4
:10079000761E16403143F0BC01F049BA0CED00E082
:1007A000064900F0070208684FF6FF03184040EAC8
:1007B0000220034A10430860704700000CED00E07F
:1007C0000000FA052DE9F0470F46050061D0434EC1
:1007D000306800F00700B84209D2306820F0070006
:1007E00038433060306800F00700B84251D12868C3
:1007F0003B4C810712D5400703D5606840F4E060A8
:1008000060602878000703D5606840F4605060603D
:100810006068A96820F0F000084360602878C0078D
:1008200028D06868012810D02168022810D08907D4
:1008300000292EDA616821F0030101436160FFF7AE
:1008400023FF804641F288390DE021688903EFE7F4
:100850008901EDE7FFF718FFA0EB0801494502D930
:100860000320BDE8F0876068696800F00C00B0EB19
:10087000810FEFD1306800F00700B8420BD9306823
:1008800020F0070038433060306800F00700B842BD
:1008900001D00120E5E72878400705D56068E968C0
:1008A00020F4E060084360602878000706D560689F
:1008B000296920F4605040EAC100606000F038F817
:1008C0006168084AC1F30311515CC84006490860D9
:1008D00006480068FFF7F8FE0020C2E7002002404B
:1008E00000100240061D0008140000200C0000202B
:1008F0000448054900684968044AC1F30221515C73
:10090000C84070471400002000100240161D000867
:100910000448054900684968044AC1F3C221515C92
:10092000C84070471400002000100240161D000847
:100930000E4A51680E4801F00C03042B11D0082B0D
:100940000FD10C48C1F38343C903C05C0AD5516879
:10095000084AC1F34041921E515C054A5043B0FB26
:10096000F1F070470449484370470000001002400E
:1009700000127A00F61C000800093D002DE9F84F2E
:10098000040070D02078C04DC00749D06868C0F31B
:100990008100012807D06868C0F38100022809D1CE
:1009A0006868C00306D52868800339D560680028C8
:1009B000E7D035E06068B0F5803F0BD010B1B0F5FE
:1009C000A02F11D0286820F480302860286820F4F7
:1009D000802002E0286840F480302860606890B190
:1009E000FFF752FE06460AE0286840F4802028609F
:1009F000F0E700BFFFF748FE801B642873D8286823
:100A00008003F7D50CE0FFF73FFE064605E000BF88
:100A1000FFF73AFE801B6428F0D828688003F7D4DB
:100A200020789A4E80074FF001094FF0000839D521
:100A3000686810F00C0F07D06868C0F381000228C6
:100A400009D16868C00306D42868800714D52069D6
:100A5000012808D110E02069B0B1C6F80090FFF776
:100A600013FE074605E00AE1FFF70EFEC01B022851
:100A7000C4D828688007F7D52868616920F0F80095
:100A800040EAC10028600DE0C6F80080FFF7FCFDD9
:100A9000074604E0FFF7F8FDC01B022823D82868AA
:100AA0008007F7D4207800072CD57948A169D9B1FF
:100AB000C0F80090FFF7E8FD074604E0FFF7E4FD0B
:100AC000C01B02280FD8686A8007F7D571484FF419
:100AD000FA510068B0FBF1F0009000BF0098411E91
:100AE0000091FAD20EE080E0C0F80080FFF7CCFD64
:100AF000074604E0FFF7C8FDC01B022875D8686AE6
:100B00008007F7D42078400760D5E8690027C00047
:100B100008D4E86940F08050E861E869012700F0F6
:100B2000805000905C480168C90513D40168834671
:100B300041F480710160FFF7A7FD824606E000BF27
:100B4000FFF7A2FDA0EB0A0064284ED8DBF80000F6
:100B5000C005F5D5E06801280AD008B1052813D0F2
:100B6000286A20F001002862286A20F0040002E0D0
:100B7000286A40F001002862E06841F2883B98B1A1
:100B8000FFF782FD82460BE0286A40F004002862ED
:100B9000EEE700BFFFF778FDA0EB0A0159455AD8F0
:100BA000286A8007F6D50CE0FFF76EFD824605E067
:100BB000FFF76AFDA0EB0A0159454CD8286A800767
:100BC000F6D41FB1E86920F08050E861E06988B38D
:100BD0006968C1F38101022944D00228C6F8608007
:100BE00004D0FFF751FD044638E034E0FFF74CFD38
:100BF000074604E0FFF748FDC01B02282BD82868F1
:100C00008001F7D4206AB0F5803F05D16868A168FB
:100C100020F4003008436860D4E90801084369689B
:100C200021F4741108436860C6F86090FFF72CFD4A
:100C3000044606E025E000BFFFF726FD001B022862
:100C400009D828688001F7D51BE000BFFFF71CFD1D
:100C5000001B022802D90320BDE8F88F2868800114
:100C6000F4D40EE00128F7D06868226A00F48031DD
:100C7000914204D1616A00F47010884201D00120D1
:100C8000EAE70020E8E700000010024000004242CE
:100C900080044242140000200070004010B5401E45
:100CA000B0F1807F01D3012010BD4FF0E0246061DE
:100CB0000F21601700F0BBFF0020A061072020611A
:100CC000002010BD7047704770B590F83C20012A95
:100CD0002CD0012480F83C40022280F83D2003689B
:100CE0005A689D6822F070060A6832435A60104BB9
:100CF00002689A420ED00F4B9A420BD0B2F1804F4D
:100D000008D00D4B9A4205D00C4B9A4202D00C4BA6
:100D10009A4204D1496825F080031943916080F814
:100D20003D40002180F83C10084670BD022070BD97
:100D3000002C014000340140000400400008004045
:100D4000000C004070B500681C49884235D11C4C2D
:100D50001C4D4FF6FF762078012815D002282CD1A3
:100D60000021194800F0B3FA68600021164800F02D
:100D7000AFF920783346401C2070BDE87040012256
:100D800012A1134800F065BC3346012211A110489E
:100D900000F05FFC00210C4800F099FA28600A4836
:100DA00001680A6A22F00A020A620068016A41F0D8
:100DB000020101622078401C207070BD002C0140AF
:100DC0000000002018000020240000203300000054
:100DD0006C000020320000002DE9F041054690F83B
:100DE0003C0000260C46012810D0012085F83C006C
:100DF00072B1042A1CD0082A2CD00C2A50D001260B
:100E0000002085F83C003046BDE8F0810220FBE779
:100E1000D4E90012E368286800F088FD2868816939
:100E200021F00C01816128688169A26811430FE0FB
:100E3000D4E90012E368286800F0AEFD28688169F3
:100E400021F44061816128688169A26841EA022138
:100E50008161D5E72868D4E9002C277B036A016A01
:100E600021F480710162C16923F4007321F0030150
:100E700041EA0C0121F0F00C39074FF400774CEAFD
:100E8000116107EA02221A43C16102622868C1693E
:100E900021F00C01C1612868C169A26811432BE0EF
:100EA0002868D4E90021E768036AD0F820C02CF450
:100EB000805CC0F820C0D0F81CC023F400532CF490
:100EC000407C4CEA012121F4704C4FF6FF7101EA9D
:100ED00007314FF4005741EA0C0107EA02321A4386
:100EE000C16102622868C16921F44061C16128685A
:100EF000C169A26841EA0221C16181E710B504001D
:100F000003D094F83D0010B107E0012010BD00208F
:100F100084F83C00204600F01FF8022084F83D00D1
:100F2000211D206800F0AEFC012084F8460084F802
:100F30003E0084F83F0084F8400084F8410084F8C3
:100F4000420084F8430084F8440084F8450084F8A3
:100F50003D00002010BD000000B585B000210091CB
:100F60000191029103910068174988422AD11748DC
:100F7000816941F400618161816901F4006104913A
:100F8000816941F0400181618069694600F040005B
:100F900004904FF400700090012002900C48FFF77D
:100FA00069FA0C48416821F0C00141F0E06141F06C
:100FB000C0014160002211461B20FFF7D1FB1B201E
:100FC000FFF7C0FB05B000BD002C0140001002403F
:100FD000001801400000014030B50446002551B121
:100FE00004290DD0082910D094F8412094F8450028
:100FF000012A11D10EE094F83E2094F84200F7E760
:1010000094F83F2094F84300F2E794F8402094F8D5
:101010004400EDE7012801D0012030BD022059B184
:10102000042912D0082919D084F8410084F8450019
:101030000C293ED001253AE084F83E0084F84200B5
:101040002068C26842F0020210E084F83F0084F891
:1010500043002068C26842F0040207E084F84000C0
:1010600084F844002068C26842F00802C26001228D
:10107000206800F04DFC1149206888420ED01049CC
:1010800088420BD0B0F1804F08D00E49884205D07D
:101090000D49884202D00D49884204D1816801F08F
:1010A0000701062903D0016841F0010101602846CB
:1010B00030BD2068C26842F01002D7E7002C014022
:1010C000003401400004004000080040000C0040D3
:1010D00070B50D0004464FF0000607D0042D0AD06D
:1010E000082D0DD00C2D10D001262FE02068C168EE
:1010F00021F002010DE02068C16821F0040108E040
:101100002068C16821F0080103E02068C16821F06F
:101110001001C16000222946206800F0F9FB206818
:10112000016A41F21112114207D1016A9210114273
:1011300003D1016821F001010160012045B1042DB6
:1011400009D0082D0AD004F8410F2071304670BD37
:1011500004F83E0FF9E704F83F0FF6E704F8400FF4
:10116000F3E770B50446006801694FF00005C94314
:10117000890715D4C168C943890711D4E91E0161E3
:1011800001202077206880698007204602D0FFF781
:10119000D9FD04E000F098F8204600F096F8257795
:1011A00020680169C943490717D4C168C943490781
:1011B00013D46FF004010161022020772068806958
:1011C00010F4407F204602D0FFF7BCFD04E000F0A1
:1011D0007BF8204600F079F8257720680169C9433B
:1011E000090716D4C168C943090712D46FF0080172
:1011F0000161042020772068C0698007204602D062
:10120000FFF7A0FD04E000F05FF8204600F05DF875
:10121000257720680169C943C90617D4C168C94345
:10122000C90613D46FF010010161082020772068EF
:10123000C06910F4407F204602D0FFF783FD04E030
:1012400000F042F8204600F040F825772068016958
:10125000C943C90708D1C168C943C90704D1891E58
:101260000161204600F032F820680169C94309068F
:1012700009D4C168C943090605D46FF08001016132
:101280002046FFF71FFD20680169C943490609D4BC
:10129000C168C943490605D46FF040010161204689
:1012A00000F02AF820680169C94389060BD4C16897
:1012B000C943890607D46FF0200101612046BDE8CB
:1012C0007040FFF700BD70BD704770477047024621
:1012D000002041B1042909D008290AD00C2901D1E4
:1012E0001068006C70471068406B70471068806B26
:1012F00070471068C06B70477047704770470000B8
:10130000F8B5016804460868CA684B6910F00F0F09
:101310004FF0000559D003F0010602F490773743EF
:1013200065D0C10705D0D10503D5616C41F001013D
:101330006164410705D5D90703D0616C41F0020112
:101340006164810705D5D90703D0616C41F00401C0
:101350006164010707D502F02001314303D0616CBD
:1013600041F008016164616C00293AD0800604D51F
:10137000900602D5204600F059FB20684069616C58
:10138000C0F38010090700D460B3204600F027FBAB
:1013900020684069400621D52068143050E8001FBD
:1013A00021F0400140E80012002AF5D1E06BA8B11D
:1013B0006D494163E06BFEF7B3FF002811D0E06B8D
:1013C000416B01B0BDE8F040084783060FD5930696
:1013D0000DD52046BDE8F84000F028BB2046FFF7B9
:1013E0008DFFF8BD2046FFF789FF6564F8BD266BC9
:1013F0002023012E7CD1C6067AD5D60678D508687A
:101400004868009048694FF00206400640D5E16BFD
:10141000086840680004000CE8D0A28D8242E5D93B
:10142000E085886920282DD020680C3050E8001F06
:1014300021F4807140E80012002AF5D120681430B0
:1014400050E8001F21F0010140E80012002AF5D108
:101450002068143050E8001F21F0400140E80012DD
:10146000002AF5D184F84230256320680C3050E81A
:10147000001F21F0100140E80012002AF5D1E06BB6
:10148000FEF72BFF6663A08DE18D401A81B22AE042
:10149000A08DE18D401A81B2E08D0028A6D00029F0
:1014A000A4D022680C3252E8000F20F4907042E879
:1014B0000007002FF5D12068143050E8002F22F0EB
:1014C000010240E80027002FF5D184F8423025635F
:1014D00020680C3050E8002F22F0100240E8002372
:1014E000002BF5D166632046FFF707FFF8BDFFE745
:1014F00005062BD5150629D594F841002128F5D1EC
:10150000A068B0F5805F01D12069B0B1206A411CAC
:101510002162216800784860E08C401E0004000CC5
:10152000E084E3D12068C16821F08001C1602068B7
:10153000C16841F04001C160D8E7206A0088C0F36B
:1015400008004860206A801C2062E5E74006CDD58F
:101550005006CBD5CA68204622F04002CA6084F803
:10156000413000F0C3F8C1E7CF19000870B504009E
:1015700004D094F84100002510B106E0012070BDB0
:1015800084F84050204600F023F8242084F84100DD
:101590002068C16821F40051C160204600F0A8FA1B
:1015A0002068016921F4904101612068416921F0BE
:1015B0002A0141612068C16841F40051C16065643D
:1015C000202084F8410084F842006563002070BD4B
:1015D00030B585B00024009401940294039400680F
:1015E000184988422CD11848816941F480418161B1
:1015F000816901F480410491816941F004018161B4
:101600008069124D00F0040004904FF400700090C7
:10161000022001900320039069462846FEF72AFF26
:101620002815CDE90004694628460294FEF722FFFA
:10163000002211462520FFF793F82520FFF782F8B6
:1016400005B030BD003801400010024000080140E4
:1016500070472DE9F843044690F841001F461646AE
:101660000D46202802D00220BDE8F8837DB176B176
:1016700000206064212084F84100FFF705F8A6846B
:101680008046E684A068B0F5805F02D003E00120C8
:10169000EAE7206910B12E4600250EE000260CE096
:1016A0008021204600F080FAA0B9AEB116F8010BF7
:1016B00021684860E08C401EE084E08C43464FF097
:1016C000000200970028EBD14FF04001204600F0C7
:1016D0006BFA30B10320C7E735F8020BC0F30800FE
:1016E000E6E7202084F841000020BDE77047FEE7D0
:1016F00030B585B0002418480094019402940394F6
:10170000816941F040018161816901F040010491EA
:10171000816941F004018161816901F00401049152
:10172000816941F00801816180690C4D00F0080079
:101730000490012220212846FEF7A0FF20200090DF
:101740000120CDE901040220039069462846FEF7F6
:1017500091FE05B030BD000000100240000C0140B9
:1017600010B586B000241A4805940494009401949E
:1017700002941649039401604721C0E901144FF611
:10178000FF71C0E903148021C0E90541FFF7B6FBF2
:1017900008B1FEF7A0FD049404A90D480594FFF7D5
:1017A00093FA08B1FEF797FD0120CDE9004008202B
:1017B000CDE90240002269460548FFF70DFB0028ED
:1017C00001D0FEF788FD06B010BD0000002C0140DE
:1017D000240000200C4810B50A4901604FF4E131A3
:1017E0004160002181600C22C160C0E90412816166
:1017F000C161FFF7BBFE002803D0BDE81040FEF733
:101800006ABD10BD003801406C000020FEE7FEE715
:1018100070477047FEF73EBF30B58FB0282168464D
:10182000FEF7F4FC14210AA8FEF7F0FC01210804DD
:10183000CDE900100024029402250491CDE907505F
:101840004FF4E01009906846FFF798F808B172B6B7
:10185000FEE70F20CDE90A054FF48060CDE90C408A
:1018600002210AA80E94FEF7ADFF002801D072B63F
:10187000FEE70FB030BD70470148FFF772BC0000B3
:1018800024000020F0B502681C4B1D4D1D4E1E4F5C
:101890001E4C4FF0804C984209D0A04207D06045C2
:1018A00005D0A84203D0B04201D0B84204D122F002
:1018B000700E4A6842EA0E02984209D0A04207D050
:1018C000604505D0A84203D0B04201D0B84203D150
:1018D00022F44075CA682A434D6922F080022A43E7
:1018E00002608A68C2620A688262984201D0A0429D
:1018F00001D10969016301214161F0BD002C014062
:101900000004004000080040000C0040003401408A
:1019100010B501F01F030121046A99408C43046251
:10192000016A9A401143016210BD000070B5056A5A
:10193000046A24F0010404628469124EB0420ED09D
:10194000114EB0420BD0B0F1804F08D00F4EB042D4
:1019500005D00F4EB04202D00E4EB04203D124F05B
:101960000304144301E044F001041A0724F0F004D6
:1019700044EA126225F00A0301F00A011943826168
:10198000016270BD002C01400034014000040040A1
:1019900000080040000C004030B5046A056A25F0DC
:1019A00010050562856925F4407545EA022222F496
:1019B00070454FF6FF7202EA033224F0A0032A4377
:1019C000A02404EA011119438261016230BD10B5FF
:1019D000406A0021C185C184FFF790FC10BD0168F9
:1019E0000C3151E8002F22F4907241E80023002BC3
:1019F000F5D10168143151E8002F22F0010241E8CD
:101A00000023002BF5D1016B012909D101680C31AC
:101A100051E8002F22F0100241E80023002BF5D1FD
:101A2000202180F8421000210163704708B590F82A
:101A30004210222901D0022008BD82684FF4805351
:101A40009A4201D1016921B1816A9A421BD04AB1FF
:101A50000AE00268816A5268C2F308020A80816A59
:101A6000891C08E0026972B10268526802F07F02C4
:101A70000A70816A491C8162C18D491E0904090CE2
:101A8000C18503D01BE002685268F1E70168CA68AB
:101A900022F02002CA600168CA6822F48072CA601B
:101AA00001684A6922F001024A61202180F842104F
:101AB00000214163026B012A03D0FFF7C9FD00201A
:101AC00008BD016301680C3151E8002F22F01002BB
:101AD00041E80023002BF5D101680A68D20602D53F
:101AE0000A6849680091818DFFF707FCE7E700006D
:101AF00070B5044600680169E26821F44051114361
:101B000001612169A0680843616908432168CA68C6
:101B100041F20C639A430243CA6020684169A2699A
:101B200021F44071114341611E492068884202D16D
:101B3000FEF7EEFE01E0FEF7DBFE00EBC00101EB7D
:101B40000012606864218000B2FBF0F3B3FBF1F394
:101B50006FF018067343B2FBF0F5B2FBF0F605EB3D
:101B60008305322303EB0515B5FBF1F5B6FBF1F662
:101B700005F0F00505EB0615B2FBF0F6B2FBF0F050
:101B8000B0FBF1F06FF01802504306EB800003EB5E
:101B90000010B0FBF1F0216800F00F0028448860CD
:101BA00070BD0000003801402DE9F041984617460D
:101BB0000E460446069D27E0681C25D02DB1FEF791
:101BC00063FDA0EB0800A8421ED920680C3050E845
:101BD000001F21F4D07140E80012002AF5D12068DE
:101BE000143050E8001F21F0010140E80012002AE3
:101BF000F5D1202084F8410084F84200002084F8C8
:101C000040000320BDE8F0812068006836EA00004B
:101C100004D00020B842CFD00020F3E70120F9E73C
:101C20000148FFF76DBB00006C000020FEE70907CC
:101C3000090E002804DB00F1E02080F80014704752
:101C400000F00F0000F1E02080F8141D7047000044
:101C5000FEF728FDFFF7E0FDFFF74AFDFFF7BAFDAD
:101C6000FFF77EFD1C4E1D4C4FF6FF7520213046C0
:101C7000FEF7FCFC2078C0B10328F7D118482B46AA
:101C8000012203C80844606016A11748FFF7E1FC71
:101C90002B46012214486168FFF7DBFC4FF47A7091
:101CA000FEF7D6FB00202070E0E72B4601220FA1B3
:101CB0000D48FFF7CEFC2078401C20700C480168CE
:101CC0000A6A22F00A020A620068016A01620021BF
:101CD0000748FFF781F9C9E7000C01400000002028
:101CE00018000020340000006C00002031000000CB
:101CF00024000020010202030405060708090A0B5C
:101D00000C0D0E0F1010000000000000000001027A
:101D10000304060708090000000001020304000094
:101D2000401D000800000020180000006C010008A1
:101D3000581D000818000020000700008801000856
:101D40000000000000000000010000001000000082
:081D5000000000000024F40073
:0400000508000131BD
:00000001FF
